:100000000C944D000C949A160C94D1160C9408176D
:100010000C943F170C9476170C94AD170C94E717BB
:100020000C9421180C9481190C94AB190C946A004F
:100030000C946A000C946A000C946A000C942919C0
:100040000C9455190C946A000C946A000C946A0084
:100050000C946A000C946A000C9467120C946A0069
:100060000C946A000C946A000C946A000C946A0068
:100070000C946A000C946A000C946A000C946A0058
:100080000C946A000C946A000C946A000319191904
:100090001B191D191F191519171911241FBECFEF90
:1000A000D0E1DEBFCDBF13E0A0E0B1E0EEE1FAE3C6
:1000B00002C005900D92A031B107D9F724E0A0E16C
:1000C000B3E001C01D92A93EB207E1F70E94E31917
:1000D0000C940D1D0C940000E0912203F091230379
:1000E0001682118610860895E0912203F091230371
:1000F0001782118610860895E0912203F091230360
:10010000848195810C947407E0912203F09123037C
:1001100087818111089581E086831186108661E0D0
:10012000848195810C94D406E0912203F0912303FD
:1001300086818111089581E087831186108661E0B0
:10014000848195810C942407E0912203F09123038C
:10015000848195810C946E080F931F93CF93DF9346
:10016000C0912203D0912303088519850E941F1294
:10017000880F991F8017910750F0888599850196FF
:1001800099878887DF91CF911F910F9108950885F6
:1001900019850E941F129C01220F331F220F331F4B
:1001A000220F331F281B390B20173107A0F0888539
:1001B000998501969987888761E08E81811122C097
:1001C0008F818823F9F28C819D81DF91CF911F91DE
:1001D0000F910C942407088519850E941F129C0119
:1001E000220F331F280F391F220F331F220F331FF7
:1001F0002017310778F08885998501969987888737
:1002000062E0DBCF8C819D81DF91CF911F910F91B7
:100210000C94D40663E0D1CFCF93DF93EC010E941E
:10022000F50E9B838A830E94350B9D838C831E82EF
:100230001F82198618860E94CB15998388836CE7E4
:1002400070E00E94161662E0888199810E942E1645
:10025000888199810E947A16888199810E948A16E4
:1002600064E870E0888199810E941A166CE670E05B
:10027000888199810E941E1661E0888199810E947F
:100280004116888199810E947E16888199810E94F9
:100290008E1664E970E0888199810E94221664E7D5
:1002A00070E0888199810E94261661E08881998199
:1002B0000E945416888199810E94821688819981B2
:1002C0000E94921664EA70E0888199810E942A1641
:1002D00062E0888199810E946716888199810E94D5
:1002E0008616888199810E9496160E94CD116CEA2B
:1002F00070E0DF91CF910C940F12809122039091C6
:100300002303009709F0089580911A03882339F098
:1003100080E193E0909323038093220308958AE180
:1003200093E00E942212892B99F380E193E00E94CE
:100330000C018AE193E00E942B12EACFFC016230AB
:1003400009F451C06330E1F141E050E083A124A100
:10035000922F9F70480F591F5F70403A85E05807F1
:1003600094F543A3852F8F70207F282B24A39A0117
:10037000A9E8B8E80E94191A9C013695279532958C
:1003800022952F7023273F702327CA016CE370E06A
:100390000E94FF198F732C30310550F595A19F7382
:1003A00095A32115310511F52CE02295207F94A10C
:1003B0009F70922B94A395A1907C982B95A3089560
:1003C0004CE350E0C3CF8FE983A3207F256024A3B3
:1003D00085A18F73806485A327E130E08BE32C50E7
:1003E00031092F70E2CF4AE050E0B0CF2F70DDCF5F
:1003F00095A19F73906495A32C303105A9F2EFCF9E
:10040000FC01623009F459C06330F1F041E050E082
:1004100021E030E083A164A1962F9F70281739074F
:10042000F0F013A2607F64A385A18F7385A380E0A1
:100430002CE02295207F94A19F70922B94A395A1EC
:10044000907C982B95A308954CE350E02CE330E08A
:1004500083A164A1962F9F702817390710F79C017C
:10046000241B350BA9015F7043A3852F8F70607F1C
:10047000682B64A39A01A9E8B8E80E94191A9C01A4
:1004800036952795329522952F7023273F70232785
:10049000CA016CE370E00E94FF198F7395A19F73EE
:1004A0002C30310578F0906495A32C30310509F497
:1004B000BFCF2C5031092F70BCCF4AE050E02AE06A
:1004C00030E0A8CF95A32115310509F4B1CF2F70E5
:1004D000B0CFFC01623009F451C06330E1F141E07A
:1004E00050E08789208D922F9F70480F591F5F70B1
:1004F000403A85E0580794F5478B852F8F70207F11
:10050000282B208F9A01A9E8B8E80E94191A9C01AB
:1005100036952795329522952F7023273F702327F4
:10052000CA016CE370E00E94FF198F732C30310513
:1005300050F5918D9F73918F2115310511F52CE0A8
:100540002295207F908D9F70922B908F918D907C23
:10055000982B918F08954CE350E0C3CF8FE9878BA0
:10056000207F2560208F818D8F738064818F27E1AC
:1005700030E08BE32C5031092F70E2CF4AE050E09D
:10058000B0CF2F70DDCF918D9F739064918F2C3001
:100590003105A9F2EFCFFC01623009F451C063309C
:1005A000E1F141E050E0828D238D922F9F70480F42
:1005B000591F5F70403A85E0580794F5428F852FA8
:1005C0008F70207F282B238F9A01A9E8B8E80E941A
:1005D000191A9C0136952795329522952F7023275D
:1005E0003F702327CA016CE370E00E94FF198F73EC
:1005F0002C30310550F5948D9F73948F2115310562
:1006000011F52CE02295207F938D9F70922B938F74
:10061000948D907C982B948F08954CE350E0C3CF39
:100620008FE9828F207F2560238F848D8F73806474
:10063000848F27E130E08BE32C5031092F70E2CF1B
:100640004AE050E0B0CF2F70DDCF948D9F7390645F
:10065000948F2C303105A9F2EFCFFC01623009F400
:1006600051C06330E1F141E050E0858D268D922F3D
:100670009F70480F591F5F70403A85E0580794F506
:10068000458F852F8F70207F282B268F9A01A9E810
:10069000B8E80E94191A9C01369527953295229543
:1006A0002F7023273F702327CA016CE370E00E945C
:1006B000FF198F732C30310550F5978D9F73978FED
:1006C0002115310511F52CE02295207F968D9F7024
:1006D000922B968F978D907C982B978F08954CE353
:1006E00050E0C3CF8FE9858F207F2560268F878DCF
:1006F0008F738064878F27E130E08BE32C503109C2
:100700002F70E2CF4AE050E0B0CF2F70DDCF978D51
:100710009F739064978F2C303105A9F2EFCFFC01C5
:10072000623009F451C06330E1F141E050E080A152
:1007300021A1922F9F70480F591F5F70403A85E0AA
:10074000580794F540A3852F8F70207F282B21A375
:100750009A01A9E8B8E80E94191A9C0136952795D4
:10076000329522952F7023273F702327CA016CE30F
:1007700070E00E94FF198F732C30310550F592A163
:100780009F7392A32115310511F52CE02295207F4E
:1007900091A19F70922B91A392A1907C982B92A3F0
:1007A00008954CE350E0C3CF8FE980A3207F2560FC
:1007B00021A382A18F73806482A327E130E08BE3C1
:1007C0002C5031092F70E2CF4AE050E0B0CF2F70AB
:1007D000DDCF92A19F73906492A32C303105A9F2D2
:1007E000EFCFFC01623009F459C06330F1F041E011
:1007F00050E021E030E08789608D962F9F702817A8
:100800003907F0F0178A607F608F818D8F73818F39
:1008100080E02CE02295207F908D9F70922B908F0E
:10082000918D907C982B918F08954CE350E02CE3B0
:1008300030E08789608D962F9F702817390710F751
:100840009C01241B350BA9015F70478B852F8F708E
:10085000607F682B608F9A01A9E8B8E80E94191A96
:100860009C0136952795329522952F7023273F704E
:100870002327CA016CE370E00E94FF198F73918DEA
:100880009F732C30310578F09064918F2C303105B6
:1008900009F4BFCF2C5031092F70BCCF4AE050E093
:1008A0002AE030E0A8CF918F2115310509F4B1CFAE
:1008B0002F70B0CFFC01623009F459C06330F1F001
:1008C00041E050E021E030E0828D638D962F9F70F3
:1008D00028173907F0F0128E607F638F848D8F7335
:1008E000848F80E02CE02295207F938D9F70922B47
:1008F000938F948D907C982B948F08954CE350E0C7
:100900002CE330E0828D638D962F9F702817390776
:1009100010F79C01241B350BA9015F70428F852FB6
:100920008F70607F682B638F9A01A9E8B8E80E94F6
:10093000191A9C0136952795329522952F702327F9
:100940003F702327CA016CE370E00E94FF198F7388
:10095000948D9F732C30310578F09064948F2C30F7
:10096000310509F4BFCF2C5031092F70BCCF4AE0BC
:1009700050E02AE030E0A8CF948F2115310509F42A
:10098000B1CF2F70B0CFFC01623009F459C0633091
:10099000F1F041E050E021E030E0858D668D962F4A
:1009A0009F7028173907F0F0158E607F668F878D4E
:1009B0008F73878F80E02CE02295207F968D9F702B
:1009C000922B968F978D907C982B978F08954CE360
:1009D00050E02CE330E0858D668D962F9F702817B0
:1009E000390710F79C01241B350BA9015F70458F57
:1009F000852F8F70607F682B668F9A01A9E8B8E811
:100A00000E94191A9C0136952795329522952F70D0
:100A100023273F702327CA016CE370E00E94FF196F
:100A20008F73978D9F732C30310578F09064978F7A
:100A30002C30310509F4BFCF2C5031092F70BCCFB9
:100A40004AE050E02AE030E0A8CF978F2115310529
:100A500009F4B1CF2F70B0CFFC01623009F459C056
:100A60006330F1F041E050E021E030E080A161A18D
:100A7000962F9F7028173907F0F010A2607F61A3AE
:100A800082A18F7382A380E02CE02295207F91A128
:100A90009F70922B91A392A1907C982B92A3089582
:100AA0004CE350E02CE330E080A161A1962F9F70D1
:100AB0002817390710F79C01241B350BA9015F701B
:100AC00040A3852F8F70607F682B61A39A01A9E8EE
:100AD000B8E80E94191A9C013695279532952295FF
:100AE0002F7023273F702327CA016CE370E00E9418
:100AF000FF198F7392A19F732C30310578F09064A9
:100B000092A32C30310509F4BFCF2C5031092F703E
:100B1000BCCF4AE050E02AE030E0A8CF92A32115F4
:100B2000310509F4B1CF2F70B0CF0F931F93CF933E
:100B3000DF93EC018CE0FE013B96DE0157960190BD
:100B40000D928A95E1F71FA21EA219A618A61BA650
:100B50001AA61DA61CA68E010A5A1F4F85E0F80191
:100B600080838F8198850E94D410F8016081811163
:100B700014C06F5F8A819B810E9423108FE08A8757
:100B80008F8198850E94D410811102C08FE08987DF
:100B9000DF91CF911F910F9108958A819B810E94CF
:100BA0002310EECFBF92CF92DF92EF92FF920F937E
:100BB0001F93CF93DF938C01FC01878190850E9466
:100BC000D410882351F0DF91CF911F910F91FF90A6
:100BD000EF90DF90CF90BF9008958CE0F80177966A
:100BE000D8011B9601900D928A95E1F76801F7E113
:100BF000CF0ED11CE8012B96B12CEE24E394F12CFE
:100C0000EC1AFD0A4991B40EB7016C0F7D1FF80173
:100C1000808191810E945712CC15DD0599F74B2DEB
:100C200061E070E0F801808191810E945712F80123
:100C300017A216A211A610A613A612A615A614A6F0
:100C4000E801CA5ADF4F85E08883878190850E943A
:100C5000D410688181110DC06F5FF801828193818A
:100C60000E9423108FE0F80182878FE0F8018187CE
:100C7000AACFF801828193810E942310F6CFEF92D0
:100C8000FF920F931F93CF93DF931F92CDB7DEB7E1
:100C9000E0908403F0908503F7018681811108C0FC
:100CA0000F90DF91CF911F910F91FF90EF900895DA
:100CB000109124031F5F109324030E941F12212F01
:100CC00030E02817390760F310922403F701878179
:100CD00090850E94D4108823A1F1F7018185882393
:100CE000F9F281858150818781858111D9CF8CE08E
:100CF0003B96D701579601900D928A95E1F7F7013F
:100D000017A216A211A610A613A612A615A614A61F
:100D100087010A5A1F4F85E0F8018083F701878118
:100D200090850E94D410F8016081811131C06F5FFD
:100D3000F701828193810E9423108FE0F70182875F
:100D4000AFCF87010A5A1F4FF8012081253009F0E3
:100D5000A7CFF7018285882309F4A2CFF701828506
:100D600081508287828581119BCFF7018781908591
:100D700029830E94D710F70117A216A211A610A668
:100D800013A612A615A614A62981F8012083C6CFA2
:100D9000F701828193810F90DF91CF911F910F9185
:100DA000FF90EF900C9423100F931F93CF93DF933A
:100DB0001F92CDB7DEB78C01DC0117968D919C9107
:100DC000189769830E94D4106981811137C0D801B6
:100DD0009696ED91FC919797309799F098968D9112
:100DE0009C9199972FE019962C9380FD15C09595AD
:100DF0008795800F911F0F90DF91CF911F910F91D9
:100E00000994D80198968D919C91999780FF16C06E
:100E10002FE0D80119962C9395958795800F911FF7
:100E2000DC012D913C912E0F3F1FD901ED91FC91DA
:100E30000F90DF91CF911F910F9109940F90DF9147
:100E4000CF911F910F9108950F931F93CF93DF932D
:100E50001F92CDB7DEB78C01DC0117968D919C9166
:100E6000189769830E94D4106981811137C0D80115
:100E70009A96ED91FC919B97309799F09C968D9165
:100E80009C919D972FE019962C9380FD15C0959508
:100E90008795800F911F0F90DF91CF911F910F9138
:100EA0000994D8019C968D919C919D9780FF16C0C6
:100EB0002FE0D80119962C9395958795800F911F57
:100EC000DC012D913C912E0F3F1FD901ED91FC913A
:100ED0000F90DF91CF911F910F9109940F90DF91A7
:100EE000CF911F910F9108950F931F93CF93DF938D
:100EF000EC018E81882309F490C08FE089878E01F0
:100F00000A5A1F4FF8016081643009F481C06530CE
:100F100009F495C0633029F121E0260FF801208300
:100F2000FE0184E0289FE00DF11D112446A557A580
:100F300060A971A94EA35FA368A779A7EE5BFF4FD5
:100F400040815181628173814AA75BA76CA77DA70D
:100F5000622F8A819B81DF91CF911F910F910C9419
:100F600023108F8198850E94D410882309F47BC0B8
:100F70001FA21EA219A618A61BA61AA61DA61CA66D
:100F800085E0F80180838F8198850E94D4108111BB
:100F90009CC0F80160816F5F8A819B810E94231051
:100FA0008FE08A87F8012081FE0184E0289FE00D10
:100FB000F11D112486A597A5A0A9B1A98EA39FA371
:100FC000A8A7B9A7EE5BFF4F80819181A281B38171
:100FD0008AA79BA7ACA7BDA7253009F0B9CF1FA250
:100FE0001EA219A618A61BA61AA61DA61CA6F801C5
:100FF00020838F8198850E94D410F801608181112F
:10100000A8CF6F5F8A819B810E9423108FE08A871F
:10101000DF91CF911F910F910895BE016D5D7F4FBC
:101020008C819D810E94801181E08E8366E08A819F
:101030009B81DF91CF911F910F910C94231010820F
:101040008EA59FA5A8A9B9A98EA39FA3A8A7B9A754
:10105000749780819181A281B3818AA79BA7ACA755
:10106000BDA720E075CF2F89888D382F3F708B85E5
:101070004C85942F9F702817390729F0F80120819B
:101080002F5F208391CF2A8D8B8D382F3F708E85D7
:101090004F85942F9F702817390781F72D8D8E8DDE
:1010A000382F3F7089894A89942F9F7028173907F4
:1010B00029F728A189A1382F3F708C894D89942F59
:1010C0009F7028173907D1F653CFF80160818A81C4
:1010D0009B810E942310F801208166CFCF92DF927E
:1010E000FF920F931F93CF93DF931F92CDB7DEB77D
:1010F0006C01DC0116968C911697811109C00F9036
:10110000DF91CF911F910F91FF90DF90CF900895C5
:101110004FE0F42E1996FC92199717968D919C9199
:1011200018970E94D41086010A5A1F4FF801608157
:10113000882389F1653019F3662309F38FEF860F51
:10114000F8018083F60194E0899FE00DF11D1124E0
:1011500046A557A560A971A9D60196964D935D93B2
:101160006D937C939997EE5BFF4F40815181628133
:101170007381F60142A753A764A775A7682F8281E0
:1011800093810F90DF91CF911F910F91FF90DF908E
:10119000CF900C942310653079F6D6011A961C92E4
:1011A0001A9717968D919C91189769830E94D71072
:1011B000F60117A216A211A610A613A612A615A62E
:1011C00014A66981D8016C93878190850E94D41000
:1011D00081110CC0D8016C916F5FF60182819381FF
:1011E0000E942310D6011A96FC9289CFD8016C91E7
:1011F000F601C5CF9F92AF92BF92CF92DF92EF924E
:10120000FF920F931F93CF93DF93EC0160E070E0A8
:10121000888199810E9450128E01803409F42EC178
:10122000055F1F4F84EB8B878C85807F8C8788E6DA
:101230008E878F85807F81608F8784E7898B8A89FD
:10124000807F84608A8B88E28C8B8D89807F85602B
:101250008D8BF4EBE0E02F2F3E2FA9E8B8E80E9439
:10126000191AAC0156954795529542954F704527EE
:101270005F7045278D858F734C30510508F4D9C0B8
:1012800080648D874C30510509F4D8C04C50510909
:101290004F704295407F5C855F70542B5C878F2F29
:1012A0009E2F6CE370E00E94FF198F739D85907CE8
:1012B000982B9D87FE85EF85EF702F2F3E2FA9E895
:1012C000B8E80E94191AAC01569547955295429577
:1012D0004F7045275F70452788898F734C305105C3
:1012E00008F0C4C0888B4115510509F4ABC04F709C
:1012F0004295407F5F855F70542B5F878F2F9E2FB5
:101300006CE370E00E94FF198F739889907C982B92
:10131000988BF989EA89EF702F2F3E2FA9E8B8E85A
:101320000E94191AAC0156954795529542954F70F7
:1013300045275F7045278B898F734C30510508F026
:101340008DC08B8B4115510509F47AC04F704295C1
:10135000407F5A895F70542B5A8B8F2F9E2F6CE3DE
:1013600070E00E94FF198F739B89907C982B9B8B58
:10137000EC89FD89FF709F01A9E8B8E80E94191A5D
:10138000AC0156954795529542954F7045275F7031
:1013900045274C30510508F459C08E898F738064FD
:1013A0008E8B4C30510509F44FC04C5051094F7091
:1013B0004295407F5D895F70542B5D8BCF016CE35C
:1013C00070E00E94FF198F739E89907C982B9E8BF2
:1013D00068012CE0C20ED11CB12CEE24E394F12C58
:1013E000E01AF10AF80141918F01B40EB7016E0FB6
:1013F0007F1F888199810E9457120C151D0591F756
:101400004B2D61E070E0888199810E94571240E481
:1014100060E070E088819981DF91CF911F910F91F9
:10142000FF90EF90DF90CF90BF90AF909F900C9483
:1014300057128D874115510509F02ACF4CE029CF6D
:101440004CE085CF4CE054CF4CE0B2CF8E898F7307
:101450008E8B41155105C1F34F70AACF80648B8BE1
:101460004C30510569F34C50510970CF8064888B22
:101470004C30510539F34C50510939CF055F1F4F9E
:101480005E0127E1A20EB11C7801912CF2E0CF2E73
:10149000D12CC01AD10AB6016E0D7F1D88819981A9
:1014A0000E945012F70181937F01980EEA15FB0507
:1014B00091F761E070E0888199810E945012981242
:1014C000B1CE8B852C85922F9F70803A95400CF081
:1014D000A9CE8E852F85922F9F70803A95400CF073
:1014E000A1CE89892A89922F9F70803A95400CF06D
:1014F00099CE8C892D89922F9F70803A95400CF05F
:1015000091CEDF91CF911F910F91FF90EF90DF90DF
:10151000CF90BF90AF909F900895CF92DF92EF92BF
:10152000FF920F931F93CF93DF93EC018FE08A8795
:101530000E94F50E9B838A831BA220EC2CA31DA284
:101540007E012BE0E20EF11C8E01065F1F4F9E0113
:101550002D5D3F4F6E0147E1C40ED11CA601B701BE
:101560000E9413100E942A119D838C830E946C108C
:1015700098878F83CE010E94FA088CE0F701D6018C
:1015800001900D928A95E1F7B7018F8198850E94AD
:10159000D0100E942F129983888389E692E09FA73A
:1015A0008EA719AA18AA8BEC92E09BAB8AAB1DAA56
:1015B0001CAA8DE293E09FAB8EAB19AE18AE8FE8FC
:1015C00093E09BAF8AAF1DAE1CAE82ED95E09FAF5E
:1015D0008EAFFE01E05CFF4F11821082329681EFE8
:1015E00093E09183808332961182108232968AE54D
:1015F00094E091838083329611821082329683EC3C
:1016000094E09183808332961182108232968CE22C
:1016100095E091838083329611821082329685E91B
:1016200095E091838083329611821082329685E014
:10163000808319861E828EE991E09FA38EA319A64E
:1016400018A680E092E09BA78AA71DA61CA60E9470
:10165000CD116FE376E0DF91CF911F910F91FF9055
:10166000EF90DF90CF900C940F12809184039091B3
:101670008503009709F0089580917C03882339F051
:1016800085E293E0909385038093840308958CE72B
:1016900093E00E942212892B99F385E293E00E9445
:1016A0008D0A8CE793E00E942B12EACFE0910F04A1
:1016B000F0911004E55AFF4F81E080830895DC012A
:1016C000179621E1EEE2F1E001900D922A95E1F703
:1016D000DC015C9624E1EFE3F1E001900D922A95A4
:1016E000E1F7DC01D1962EE0E3E5F1E001900D9207
:1016F0002A95E1F71F922AE02F9321E631E03F93EC
:101700002F938A5B9F4F9F938F930E943C1A0F9059
:101710000F900F900F900F900F900895CF93DF933D
:10172000EC01DC01179685E1E7E7F1E001900D920D
:101730008A95E1F780E290E09D8F8C8FED81FE81AC
:1017400080811F928F938CE891E09F938F93CE01BD
:10175000C1969F938F930E943C1ADE01AA5BBF4FF4
:1017600085E1E3EAF1E001900D928A95E1F70F90AF
:101770000F900F900F900F900F90DF91CF910895E1
:10178000CF93DF93EC01DC01179682E1E8EBF1E007
:1017900001900D928A95E1F780E290E09D8F8C8F09
:1017A000FE01E458FF4F0190F081E02D8281982FD7
:1017B000907C51F190E51F929F938F731F928F93AE
:1017C000818182958F701F928F938AEC91E09F9315
:1017D0008F93CE01C1969F938F930E943C1ADE0196
:1017E000AA5BBF4F85E1EFEDF1E001900D928A9584
:1017F000E1F78DB79EB70A960FB6F8949EBF0FBE5D
:101800008DBFDF91CF91089591E4D5CFAF92BF9274
:10181000CF92DF92EF92FF920F931F93CF93DF93BC
:10182000EC01DC0117968EE0E4EFF1E001900D92FF
:101830008A95E1F7DE015C9683E1E2E0F2E0019057
:101840000D928A95E1F7DE01D19684E1E5E1F2E0BF
:1018500001900D928A95E1F78E0102581F4FF80111
:10186000808191810E946E11B82EA92EF80180818D
:1018700091810E946A11D82EC92EF8018081918130
:101880000E946611F82EE92EF801808191810E9454
:101890006211AF92BF92CF92DF92EF92FF929F932D
:1018A0008F9389E292E09F938F93CA5BDF4FDF9320
:1018B000CF930E943C1AEDB7FEB73C960FB6F89452
:1018C000FEBF0FBEEDBFDF91CF911F910F91FF9033
:1018D000EF90DF90CF90BF90AF900895CF93DF93BC
:1018E000EC011F9282E08F9383E492E09F938F93A9
:1018F000CE0107969F938F930E943C1AE981FA814B
:101900008385982F92959695969593700F900F904A
:101910000F900F900F900F9009F05EC091E41F920E
:101920009F938F731F928F93828582958F701F92E2
:101930008F9385E592E09F938F93CE014C969F9372
:101940008F930E943C1AED81FE8180812DB73EB7B6
:10195000265F3F4F0FB6F8943EBF0FBE2DBF8823C2
:1019600009F43EC0EB81FC818385982F9295969572
:101970009695937099F190E51F929F938F731F92A4
:101980008F93828582958F701F928F9385E892E066
:101990009F938F93CE01C1969F938F930E943C1A81
:1019A0001F9280E28F931F928AE08F938EE992E0DC
:1019B0009F938F93CA5BDF4FDF93CF930E943C1AB4
:1019C0002DB73EB72E5E3F4F0FB6F8943EBF0FBE09
:1019D0002DBFDF91CF91089590E5A1CF91E4CCCFB9
:1019E00080E290E09AAB89AB1F928F931F928AE0BE
:1019F0008F938EE692E09F938F93CA5BDF4FDF93C6
:101A0000CF930E943C1A2DB73EB7285F3F4F0FB6C9
:101A1000F8943EBF0FBE2DBFDF91CF910895CF93B5
:101A2000DF93EC011F9281E08F9385EB92E09F930F
:101A30008F93CE0107969F938F930E943C1AE98162
:101A4000FA818281982F92959695969593700F9032
:101A50000F900F900F900F900F9009F05EC091E4DF
:101A60001F929F938F731F928F93818182958F70A6
:101A70001F928F9385E592E09F938F93CE014C96B2
:101A80009F938F930E943C1AED81FE8180812DB738
:101A90003EB7265F3F4F0FB6F8943EBF0FBE2DBF37
:101AA000882309F43EC0EB81FC818281982F9295B6
:101AB00096959695937099F190E51F929F938F73E9
:101AC0001F928F93818182958F701F928F9385E8EB
:101AD00092E09F938F93CE01C1969F938F930E9424
:101AE0003C1A1F9289E08F931F9280E28F938EE9B8
:101AF00092E09F938F93CA5BDF4FDF93CF930E9457
:101B00003C1A2DB73EB72E5E3F4F0FB6F8943EBF3E
:101B10000FBE2DBFDF91CF91089590E5A1CF91E445
:101B2000CCCF80E290E09AAB89AB1F9289E08F9393
:101B30001F9280E28F938EE692E09F938F93CA5B11
:101B4000DF4FDF93CF930E943C1A2DB73EB7285F3B
:101B50003F4F0FB6F8943EBF0FBE2DBFDF91CF9120
:101B60000895CF93DF93EC011F9281E08F9383E47C
:101B700092E09F938F93CE0107969F938F930E943D
:101B80003C1AE981FA818581982F929596959695D0
:101B900093700F900F900F900F900F900F9009F08F
:101BA0005EC091E41F929F938F731F928F938481E5
:101BB00082958F701F928F9385E592E09F938F930C
:101BC000CE014C969F938F930E943C1AED81FE812B
:101BD00080812DB73EB7265F3F4F0FB6F8943EBFCA
:101BE0000FBE2DBF882309F43EC0EB81FC818581A7
:101BF000982F929596959695937099F190E51F92EE
:101C00009F938F731F928F93848182958F701F9201
:101C10008F9385E892E09F938F93CE01C1969F9317
:101C20008F930E943C1A1F9289E08F931F928AE043
:101C30008F938EE992E09F938F93CA5BDF4FDF9380
:101C4000CF930E943C1A2DB73EB72E5E3F4F0FB682
:101C5000F8943EBF0FBE2DBFDF91CF91089590E560
:101C6000A1CF91E4CCCF80E290E09AAB89AB1F92F8
:101C700089E08F931F928AE08F938EE692E09F9384
:101C80008F93CA5BDF4FDF93CF930E943C1A2DB72F
:101C90003EB7285F3F4F0FB6F8943EBF0FBE2DBF33
:101CA000DF91CF910895CF93DF93EC011F9282E0F3
:101CB0008F9385EB92E09F938F93CE0107969F932E
:101CC0008F930E943C1AE981FA818085982F929522
:101CD0009695969593700F900F900F900F900F9090
:101CE0000F9009F05EC091E41F929F938F731F9233
:101CF0008F93878182958F701F928F9385E592E0F5
:101D00009F938F93CE014C969F938F930E943C1A82
:101D1000ED81FE8180812DB73EB7265F3F4F0FB624
:101D2000F8943EBF0FBE2DBF882309F43EC0EB815F
:101D3000FC818085982F929596959695937099F150
:101D400090E51F929F938F731F928F938781829547
:101D50008F701F928F9385E892E09F938F93CE01AF
:101D6000C1969F938F930E943C1A1F9289E08F9394
:101D70001F928AE08F938EE992E09F938F93CA5BC4
:101D8000DF4FDF93CF930E943C1A2DB73EB72E5EF4
:101D90003F4F0FB6F8943EBF0FBE2DBFDF91CF91DE
:101DA000089590E5A1CF91E4CCCF80E290E09AAB8A
:101DB00089AB1F9289E08F931F928AE08F938EE602
:101DC00092E09F938F93CA5BDF4FDF93CF930E9484
:101DD0003C1A2DB73EB7285F3F4F0FB6F8943EBF71
:101DE0000FBE2DBFDF91CF91089580910F04909188
:101DF0001004009709F0089580910704882339F0B2
:101E000087E893E09093100480930F04089587E08F
:101E100094E00E942212892B99F310928903109268
:101E2000880310928B0310928A0310928D031092F4
:101E30008C0387E0809387038FE09DE09093E40319
:101E40008093E3031092E6031092E50381EB9DE09B
:101E50009093E8038093E7031092EA031092E9035A
:101E600083E59EE09093EC038093EB031092EE03E6
:101E70001092ED038EE69CE09093F0038093EF03C5
:101E80001092F2031092F1038FE59BE09093F4031C
:101E90008093F3031092F6031092F50386E09CE022
:101EA0009093F8038093F7031092FA031092F903CA
:101EB0008EE89BE09093FC038093FB031092FE035B
:101EC0001092FD0380EC9BE0909300048093FF034D
:101ED00010920204109201040E94A61325E046E02D
:101EE00051E060E00E947E140E94CD1166E57BE027
:101EF0000E940F121092E2030E942A11909306048E
:101F00008093050487E094E00E942B1279CFFF9222
:101F10000F931F93CF93DF93EC0189819A81892BD3
:101F200009F444C08B819C81892B09F43FC0FE01D8
:101F3000E55AFF4F808181114EC08881E82FF0E083
:101F4000DE0194E0899FA00DB11D1124A25ABF4F5C
:101F50008D919C9180FF30C0959587958C0F9D1F2A
:101F60007796EE0FFF1FEE0FFF1FEC0FFD1FDC013A
:101F70004D915C9120813181420F531FDA01ED9127
:101F8000FC9109950E94A6138C012796F12C4F2DE8
:101F900060E0C8010E94461441E0BE01C8010E94F1
:101FA0006613F3946596B4E0FB12F1CFDF91CF9105
:101FB0001F910F91FF9008957796EE0FFF1FEE0F80
:101FC000FF1FEC0FFD1F0190F081E02D9595879587
:101FD0008C0F9D1FD6CF1082109186031F5F109328
:101FE00086030E941F12412F50E09C01220F331FD5
:101FF000880F991F880F991F880F991F280F391F65
:102000004217530708F499CF109286030E94A61333
:102010000E94CA140E94A61325E046E051E060E049
:102020000E947E148ACF0F931F93FC0172836183F9
:102030005483438316830583E458FF4F3183208301
:102040001F910F910895FC0160830895FF920F93F3
:102050001F93CF93DF93EC0127962FE0E7ECF2E09C
:10206000DE0101900D922A95E1F7DC015C9623E1F7
:10207000E6EDF2E001900D922A95E1F7DC01D196B0
:1020800021E1E9EEF2E001900D922A95E1F7DC0101
:10209000AA5BBF4F83E1EAEFF2E001900D928A95CF
:1020A000E1F70E94A6138C010E946B14F12C4F2DB6
:1020B00060E0C8010E94461441E0BE01C8010E94D0
:1020C0006613F394659684E0F812F1CFDF91CF9117
:1020D0001F910F91FF900895809120049091210409
:1020E000009709F0089580911804882339F081E160
:1020F00094E09093210480932004089588E194E073
:102100000E942212892B99F30E945718909312046F
:10211000809311040E942A11909316048093150451
:102120001092170488E194E00E942B12E0CFCF9325
:10213000DF93EC018E81811103C0DF91CF9108956F
:102140008C819D810E947211EA81FB8120814181F5
:10215000342F3F708217930774F023814481342F0A
:102160003F70821793073CF460E088819981DF918A
:10217000CF910C948F1826814781342F3F7082179E
:1021800093073CF021854285342F3F7082179307D7
:102190005CF360E088819981DF91CF910C94A9185C
:1021A000FC01738362830895FC018681089521E018
:1021B000FC01268308951F93CF93DF93C0913404CD
:1021C000D0913504109122041F5F109322040E94C5
:1021D0001F12212F30E02817390750F110922204E6
:1021E0008E819F8101969F838E83CC970CF11F82F5
:1021F0001E828C819D8101969D838C83CC97C4F037
:102200001D821C8228813981C901019699838883A6
:10221000883191058CF49B838A838C309105ACF0D6
:1022200040E548870C9721F02B5031093B832A83E6
:10223000DF91CF911F9108951982188281E48887D8
:102240008CE090E09B838A83F3CF21E42887892B5D
:1022500079F7F6CF8091340490913504009709F016
:10226000089580912C04882339F083E294E09093C0
:1022700035048093340408958CE294E00E94221285
:10228000892B99F310922404109223048CE090E09F
:10229000909326048093250410922804109227041A
:1022A00010922A041092290481E480932B040E9446
:1022B000CD116BED70E10E940F128CE294E00E9450
:1022C0002B12D3CFFC01828193810895FC0184817C
:1022D00095810895FC01868197810895FC01808590
:1022E00090E00895FC01808191814CE3489F90012A
:1022F000499F300D112484819581820F931F089589
:10230000FC01DB018C9111969C919F706CE370E055
:102310000E94FF19718360839583848317821682DC
:10232000738362836C30710554F080E580876C3074
:10233000710569F06C50710973836283089581E4BB
:102340008087672B21F48CE090E09383828308954B
:10235000EF92FF920F931F93CF93DF93E0904F0480
:10236000F0905004D70150968C91882379F0870122
:10237000C0E0D0E0D801ED91FD918D010995219645
:10238000F701808990E0C817D907A4F3DF91CF91B6
:102390001F910F91FF90EF9008950F93CF93DF93CC
:1023A00080914F0490915004009721F0DF91CF91DC
:1023B0000F91089580914704882361F0C6E3D4E02B
:1023C000D0935004C0934F0486E394E0DF91CF9103
:1023D0000F91089587E494E00E942212892B71F3F3
:1023E0000E94C418EC0101E024E040E060E00E949B
:1023F000E918CE010E94211968EA71E1CE010E941C
:10240000251910924604C6E3D4E080E1FE01119242
:102410008A95E9F787E494E00E942B12D1CFFC0162
:102420002089283058F4E22FF0E0EE0FFF1FE80F6C
:10243000F91F718360832F5FFC01208B089582E078
:1024400090E00895FC0181E090E02081222311F0CA
:1024500080E090E0089521E0FC01208308958091C0
:102460005B0490915C04009709F0089580915304F7
:10247000882339F081E594E090935C0480935B04B9
:10248000089583E594E00E942212892B99F310921B
:1024900052041092510483E594E00E942B12EACF7B
:1024A000E199FECF7FBB6EBBE09A8DB30895E199B1
:1024B000FECF7FBB6EBB4DBB0FB607FC03C0E29ADD
:1024C000E19A0895F894E29AE19A789408951F9217
:1024D0000F920FB60F9211242F933F934F935F9358
:1024E0006F937F938F939F93AF93BF93EF93FF93DC
:1024F000E0915B04F0915C040190F081E02D309755
:1025000009F00995FF91EF91BF91AF919F918F9144
:102510007F916F915F914F913F912F910F900FBEDF
:102520000F901F901895FC01862FA281B3814C91CA
:1025300021E030E0068002C0220F331F0A94E2F748
:1025400060FDACC0209524232C93A185B2854C91CD
:1025500021E030E0058402C0220F331F0A94E2F725
:1025600081FDB1C0209524232C93A089B1894C9181
:1025700021E030E0048802C0220F331F0A94E2F702
:1025800082FD9EC0209524232C93A789B08D4C9169
:1025900021E030E0038C02C0220F331F0A94E2F7DF
:1025A00083FD8BC0209524232C93A68DB78D2C9171
:1025B00084FF77C081E090E002A002C0880F991FDD
:1025C0000A94E2F7282B2C93A5A1B6A12C9181E0C7
:1025D00090E001A402C0880F991F0A94E2F7282B0B
:1025E0002C938FEE9AE00197F1F700C00000A5A1AF
:1025F000B6A12C9181E090E001A402C0880F991F40
:102600000A94E2F7809582238C938FE396E00197FA
:10261000F1F700C00000A281B3814C9181E090E00D
:102620009C01068002C0220F331F0A94E2F7209516
:1026300024232C93A185B2854C919C01058402C072
:10264000220F331F0A94E2F7209524232C93A089AC
:10265000B1894C919C01048802C0220F331F0A9457
:10266000E2F7209524232C93A789B08D4C919C01EF
:10267000038C02C0220F331F0A94E2F72095242313
:102680002C93A68DB78D2C9102A002C0880F991FA4
:102690000A94E2F7809582238C930895422B4C9301
:1026A00054CF81E090E002A002C0880F991F0A94E5
:1026B000E2F7809582238C9387CF422B4C9375CF82
:1026C000422B4C9362CF422B4C934FCFDF92EF9231
:1026D000FF920F931F93CF93DF93EC018B01D42EC6
:1026E000FB01E080EE2071F1F12C6E2D62956F7090
:1026F0006061CE010E9493126E2D6F706061CE01F9
:102700000E949312F394F801EF0DF11DE080E110A7
:10271000ECCFDD2079F0F3E1FF1560F062E1CE014E
:102720000E94931260E1CE010E949312F39484E11F
:10273000F812F4CFDF91CF911F910F91FF90EF909E
:10274000DF9008954423B1F3F12CE8CF80918F04FA
:1027500090919004009709F0089580918704882350
:1027600039F08DE594E09093900480938F04089560
:1027700087E894E00E942212892B99F327E330E046
:1027800030935E0420935D0488E390E090936004AE
:1027900080935F0444E04093630430936504209386
:1027A0006404909367048093660445E040936A0450
:1027B00030936C0420936B0490936E0480936D04AB
:1027C00046E0409371043093730420937204909315
:1027D00075048093740447E04093780430937A043E
:1027E0002093790490937C0480937B0442E040938F
:1027F0007F0430938104209380049093830480931A
:10280000820483E080938604BC9ABD9ABE9ABF9AE4
:10281000BA9ABB9A2FEF80E792E021508040904017
:10282000E1F700C0000063E08DE594E00E949312A0
:1028300063E08DE594E00E94931263E08DE594E0FF
:102840000E94931262E08DE594E00E9493128FE360
:102850009CE90197F1F700C0000062E08DE594E08B
:102860000E94931268E08DE594E00E94931260E06C
:102870008DE594E00E9493126CE08DE594E00E9457
:10288000931287E894E00E942B126BCF1F93CF9393
:10289000DF93EC014130E9F0D0F0423091F0433069
:1028A00091F414ED160F612F62956F70CE010E94A6
:1028B0009312612F6F70CE01DF91CF911F910C9415
:1028C000931214E9EFCFDF91CF911F91089510E893
:1028D000E9CF10ECE7CFCF93DF93EC0160E00E94EB
:1028E000931261E0CE010E9493128FE99FE001975D
:1028F000F1F700C00000DF91CF910895AF92BF9231
:10290000CF92DF92EF92FF920F931F93CF93DF93BB
:102910001F92CDB7DEB75C01162F7A01110F110F90
:10292000110F612F606462956F7029830E9493126A
:10293000612F6F70C5010E949312298188E0289F42
:10294000800111242223D1F0D12C20E030E0F701C6
:10295000E20FF31FC0806C2D62956F706061C5013E
:102960000E9493126C2D6F706061C5010E949312DA
:10297000D3942D2D30E0201731074CF30F90DF91C9
:10298000CF911F910F91FF90EF90DF90CF90BF906C
:10299000AF900895CF93DF93EC0127E330E03983C4
:1029A000288388E390E09B838A8344E04E833887C2
:1029B0002F839A87898745E04D873F872E87998B9C
:1029C000888B46E04C8B3E8B2D8B988F8F8B47E00E
:1029D0004B8F3D8F2C8F9F8F8E8F42E04AA33CA35D
:1029E0002BA39EA38DA383E089A781E090E0BC9AEE
:1029F000EF81F88540819C010D8402C0220F331FB6
:102A00000A94E2F7422B4083EE85FF8540819C01CA
:102A10000C8802C0220F331F0A94E2F7422B408336
:102A2000ED89FE8940819C010B8C02C0220F331F6F
:102A30000A94E2F7422B4083EC8DFD8D40819C018E
:102A40000AA002C0220F331F0A94E2F7422B4083F0
:102A5000EBA1FCA1208109A402C0880F991F0A9450
:102A6000E2F7282B20832FEF80E792E0215080406F
:102A70009040E1F700C0000063E0CE010E94931295
:102A800063E0CE010E94931263E0CE010E94931294
:102A900062E0CE010E9493128FE39CE90197F1F767
:102AA00000C0000062E0CE010E94931268E0CE01F7
:102AB0000E94931260E0CE010E9493126CE0CE015E
:102AC0000E94931260E0CE010E94931261E0CE0159
:102AD0000E9493128FE99FE00197F1F700C0000078
:102AE000DF91CF9108958091A1049091A204009765
:102AF00009F0089580919904882339F081E994E0E0
:102B00009093A2048093A104089589E994E00E941F
:102B10002212892B99F384E690E09093930480939A
:102B2000920485E690E0909395048093940410922B
:102B300098048091640081608093640010929104F5
:102B400089E994E00E942B12D9CFFC018081A381F6
:102B5000B4812C91882381F081E090E0078002C04D
:102B6000880F991F0A94E2F7809582238C938081C5
:102B700091E089278083089581E090E0078002C07A
:102B8000880F991F0A94E2F7282B2C93808191E0FB
:102B90008927808308958091BF049091C004009795
:102BA00009F008958091B704882339F083EA94E00E
:102BB0009093C0048093BF04089587EB94E00E9433
:102BC0002212892B99F31092A4041092A30410925C
:102BD000A6041092A5041092A8041092A7041092C3
:102BE000AA041092A9041092AC041092AB041092A3
:102BF000AE041092AD041092B0041092AF04109283
:102C0000B2041092B1041092B4041092B304109262
:102C1000B6041092B50482B38F6082BB83B1806F1B
:102C200083B987EB94E00E942B12C0CFFC0171871F
:102C300060870895FC01738762870895FC0175879A
:102C400064870895FC01778766870895FC01718B7E
:102C5000608B0895FC01738B628B08958AB78C7F1B
:102C6000623061F0633039F0613011F08ABF08954D
:102C700081608ABF089583608ABF089582608ABF99
:102C800008958AB7837F623061F0633039F0613034
:102C900011F08ABF089584608ABF08958C608ABF4E
:102CA000089588608ABF08958AB78F7C623061F08A
:102CB000633039F0613011F08ABF089580618ABFB6
:102CC000089580638ABF089580628ABF08958AB795
:102CD0008F73623061F0633039F0613011F08ABF78
:102CE000089580648ABF0895806C8ABF08958068C3
:102CF0008ABF089589B7806189BF089589B78062C6
:102D000089BF089589B7806489BF089589B78068AD
:102D100089BF089588B7806188BF089588B78062A9
:102D200088BF089588B7806488BF089588B7806891
:102D300088BF08951F920F920FB60F9211242F9300
:102D40003F934F935F936F937F938F939F93AF9333
:102D5000BF93EF93FF93E091BF04F091C004808193
:102D60009181892B41F08FE39CE90197F1F700C035
:102D70000000089B11C0FF91EF91BF91AF919F910F
:102D80008F917F916F915F914F913F912F910F9014
:102D90000FBE0F901F9018950190F081E02D0995BE
:102DA000EACF1F920F920FB60F9211242F933F93E9
:102DB0004F935F936F937F938F939F93AF93BF9343
:102DC000EF93FF93E091BF04F091C004828193815F
:102DD000892B41F08FE39CE90197F1F700C00000D7
:102DE000099B11C0FF91EF91BF91AF919F918F917E
:102DF0007F916F915F914F913F912F910F900FBEF7
:102E00000F901F9018950280F381E02D0995EACF6D
:102E10001F920F920FB60F9211242F933F934F934F
:102E20005F936F937F938F939F93AF93BF93EF9332
:102E3000FF93E091BF04F091C00484819581892BB8
:102E400041F08FE39CE90197F1F700C000000A9B75
:102E500011C0FF91EF91BF91AF919F918F917F91A1
:102E60006F915F914F913F912F910F900FBE0F90F7
:102E70001F9018950480F581E02D0995EACF1F92E7
:102E80000F920FB60F9211242F933F934F935F939E
:102E90006F937F938F939F93AF93BF93EF93FF9322
:102EA000E091BF04F091C00486819781892B41F0A5
:102EB0008FE39CE90197F1F700C000000B9B11C064
:102EC000FF91EF91BF91AF919F918F917F916F9102
:102ED0005F914F913F912F910F900FBE0F901F90D8
:102EE00018950680F781E02D0995EACF1F920F9281
:102EF0000FB60F9211242F933F934F935F936F93CD
:102F00007F938F939F93AF93BF93EF93FF93E09142
:102F1000BF04F091C00480859185892B41F08FE337
:102F20009CE90197F1F700C000000C9B11C0FF91D4
:102F3000EF91BF91AF919F918F917F916F915F9131
:102F40004F913F912F910F900FBE0F901F901895AA
:102F50000084F185E02D0995EACF1F920F920FB6FC
:102F60000F9211242F933F934F935F936F937F930F
:102F70008F939F93AF93BF93EF93FF93E091BF0421
:102F8000F091C0048FE39CE90197F1F700C00000C5
:102F90000D9917C00284F385E02D309709F009954B
:102FA000FF91EF91BF91AF919F918F917F916F9121
:102FB0005F914F913F912F910F900FBE0F901F90F7
:102FC00018950484F585E02D309749F7E9CF1F92D5
:102FD0000F920FB60F9211242F933F934F935F934D
:102FE0006F937F938F939F93AF93BF93EF93FF93D1
:102FF000E091BF04F091C0048FE39CE90197F1F7E1
:1030000000C000000E9917C00684F785E02D3097A8
:1030100009F00995FF91EF91BF91AF919F918F9129
:103020007F916F915F914F913F912F910F900FBEC4
:103030000F901F9018950088F189E02D309749F77F
:10304000E9CF1F920F920FB60F9211242F933F9347
:103050004F935F936F937F938F939F93AF93BF93A0
:10306000EF93FF93E091BF04F091C00482899389AC
:10307000892B61F08FE39CE90197F1F700C0000014
:103080000F9904C00288F389E02D0995FF91EF9113
:10309000BF91AF919F918F917F916F915F914F9170
:1030A0003F912F910F900FBE0F901F901895809118
:1030B000D7049091D804009709F008958091CF0427
:1030C000882339F081EC94E09093D8048093D7045E
:1030D00008958FEC94E00E942212892B99F324E347
:1030E00030E03093C2042093C10485E390E09093D4
:1030F000C4048093C3041092C7043093C90420937E
:10310000C8049093CB048093CA0481E08093CE04DA
:10311000A09AA19A8FEC94E00E942B12D3CF623038
:1031200008F00895DC0127E0629FA00DB11D112475
:103130001296ED91FC911397808121E030E0169674
:103140000C9002C0220F331F0A94E2F7822B808377
:103150000895623008F00895DC0127E0629FA00D19
:10316000B11D11241296ED91FC911397808121E0FD
:1031700030E016960C9002C0220F331F0A94E2F73B
:1031800020952823208308958091E5049091E604FA
:10319000009709F008958091DD04882339F089EDC6
:1031A00094E09093E6048093E50408958DED94E017
:1031B0000E942212892B99F31092DC041092DB04F6
:1031C0001092DA041092D9048DED94E00E942B1233
:1031D000E6CF0F9361506330F8F4E62FF0E0E35F41
:1031E000FC4F30814230D9F04330E9F04130C9F032
:1031F000822F90E0FC013197E730F10528F4EA5B7B
:10320000FF4F0C94131A316033BF002319F080B7BD
:10321000886080BF0F91089530E0423029F7306216
:10322000E7CF3061E5CF3063E3CF3660EDCF376075
:10323000EBCF3260E9CF3360E7CF3460E5CF356064
:10324000E3CF87B7816087BF0895FC0171836083F6
:1032500008951F920F920FB60F9211242F933F9350
:103260004F935F936F937F938F939F93AF93BF938E
:10327000EF93FF93E091E504F091E6040280F3817F
:10328000E02D309709F00995FF91EF91BF91AF9133
:103290009F918F917F916F915F914F913F912F916E
:1032A0000F900FBE0F901F9018951F920F920FB6A0
:1032B0000F9211242F933F934F935F936F937F93BC
:1032C0008F939F93AF93BF93EF93FF93E091E504A8
:1032D000F091E6040190F081E02D309709F0099516
:1032E000FF91EF91BF91AF919F918F917F916F91DE
:1032F0005F914F913F912F910F900FBE0F901F90B4
:1033000018951F920F920FB60F9211242F933F938F
:103310004F935F936F937F938F939F93AF93BF93DD
:10332000EF93FF93E091E704F091E8040280F381CA
:10333000E02D0995FF91EF91BF91AF919F918F91F2
:103340007F916F915F914F913F912F910F900FBEA1
:103350000F901F9018951F920F920FB60F92112485
:103360002F933F934F935F936F937F938F939F938D
:10337000AF93BF93EF93FF93E091E704F091E804DC
:103380000190F081E02D0995FF91EF91BF91AF91F0
:103390009F918F917F916F915F914F913F912F916D
:1033A0000F900FBE0F901F9018950E94F50E0E946F
:1033B00026102FEF8FEF97EC215080409040E1F7DF
:1033C00000C0000008950E94D5190E946C10EC0105
:1033D0000E94F50E8C010E947D01789407C0C801FF
:1033E0000E94870F0E9473150E94A515CE010E94AE
:1033F000D4108823A1F3CE010E949710F0CF97FB41
:10340000072E16F4009407D077FD09D00E94281AE1
:1034100007FC05D03EF4909581959F4F08957095D7
:1034200061957F4F0895EE0FFF1F0590F491E02DF9
:103430000994A29FB001B39FC001A39F700D811D8D
:103440001124911DB29F700D811D1124911D0895AD
:10345000AA1BBB1B51E107C0AA1FBB1FA617B707BA
:1034600010F0A61BB70B881F991F5A95A9F78095D6
:103470009095BC01CD010895AEE0B0E0E2E4FAE140
:103480000C94E41C0D891E8986E08C831A830983C1
:103490008FEF9FE79E838D83AE01475E5F4F6F89FD
:1034A000788DCE0101960E945E1AEF81F885E00FBB
:1034B000F11F10822E96E4E00C94001DACE0B0E009
:1034C000E4E6FAE10C94D61C7C016B018A01FC0154
:1034D00017821682838181FFBDC1CE0101964C0106
:1034E000F7019381F60193FD859193FF81916F011F
:1034F000882309F4ABC1853239F493FD859193FF9C
:1035000081916F01853229F4B70190E00E94461C39
:10351000E7CF512C312C20E02032A0F48B3269F01F
:1035200030F4803259F0833269F420612CC08D323E
:1035300039F0803339F4216026C02260246023C032
:10354000286021C027FD27C030ED380F3A3078F4CD
:1035500026FF06C0FAE05F9E300D1124532E13C0E3
:103560008AE0389E300D1124332E20620CC08E323A
:1035700021F426FD6BC1206406C08C3611F420684E
:1035800002C0883641F4F60193FD859193FF819145
:103590006F018111C1CF982F9F7D9554933028F4EE
:1035A0000C5F1F4FFFE3F9830DC0833631F0833783
:1035B00071F0833509F05BC022C0F80180818983F6
:1035C0000E5F1F4F44244394512C540115C0380101
:1035D000F2E06F0E711CF801A080B18026FF03C0DD
:1035E000652D70E002C06FEF7FEFC5012C870E9450
:1035F0003B1C2C0183012C852F77222E17C038010C
:10360000F2E06F0E711CF801A080B18026FF03C0AC
:10361000652D70E002C06FEF7FEFC5012C870E941F
:10362000301C2C012C852068222E830123FC1BC01A
:10363000832D90E048165906B0F4B70180E290E07F
:103640000E94461C3A94F4CFF50127FC859127FE91
:1036500081915F01B70190E00E94461C31103A94BD
:10366000F1E04F1A51084114510471F7E5C0843656
:1036700011F0893639F5F80127FF07C060817181A3
:10368000828193810C5F1F4F08C060817181882700
:1036900077FD8095982F0E5F1F4F2F76B22E97FFE4
:1036A00009C090958095709561957F4F8F4F9F4F82
:1036B0002068B22E2AE030E0A4010E94781CA82ED7
:1036C000A81844C0853729F42F7EB22E2AE030E0B6
:1036D00025C0F22FF97FBF2E8F36C1F018F4883540
:1036E00079F0B4C0803719F0883721F0AFC02F2FA0
:1036F0002061B22EB4FE0DC08B2D8460B82E09C09F
:1037000024FF0AC09F2F9660B92E06C028E030E043
:1037100005C020E130E002C020E132E0F801B7FE50
:1037200007C060817181828193810C5F1F4F06C049
:103730006081718180E090E00E5F1F4FA4010E94C4
:10374000781CA82EA818FB2DFF77BF2EB6FE0BC045
:103750002B2D2E7FA51450F4B4FE0AC0B2FC08C075
:103760002B2D2E7E05C07A2C2B2D03C07A2C01C068
:10377000752C24FF0DC0FE01EA0DF11D8081803300
:1037800011F4297E09C022FF06C07394739404C00B
:10379000822F867809F0739423FD13C020FF06C0A2
:1037A0005A2C731418F4530C5718732C731468F4B0
:1037B000B70180E290E02C870E94461C73942C8510
:1037C000F5CF731410F4371801C0312C24FF12C048
:1037D000B70180E390E02C870E94461C2C8522FFD5
:1037E00017C021FF03C088E590E002C088E790E0A1
:1037F000B7010CC0822F867859F021FD02C080E20B
:1038000001C08BE227FD8DE2B70190E00E94461CCB
:10381000A51438F4B70180E390E00E94461C5A9446
:10382000F7CFAA94F401EA0DF11D8081B70190E071
:103830000E94461CA110F5CF332009F451CEB701E8
:1038400080E290E00E94461C3A94F6CFF701868110
:10385000978102C08FEF9FEF2C96E2E10C94F21C4F
:10386000FC010590615070400110D8F7809590954B
:103870008E0F9F1F0895FC01615070400190011050
:10388000D8F7809590958E0F9F1F08950F931F93E3
:10389000CF93DF93182F092FEB018B8181FD03C09C
:1038A0008FEF9FEF20C082FF10C04E815F812C817F
:1038B0003D81421753077CF4E881F9819F012F5F16
:1038C0003F4F39832883108306C0E885F985812F0F
:1038D0000995892B29F72E813F812F5F3F4F3F8329
:1038E0002E83812F902FDF91CF911F910F910895FB
:1038F000FA01AA27283051F1203181F1E8946F9321
:103900006E7F6E5F7F4F8F4F9F4FAF4FB1E03ED0C6
:10391000B4E03CD0670F781F891F9A1FA11D680F64
:10392000791F8A1F911DA11D6A0F711D811D911D97
:10393000A11D20D009F468943F912AE0269F11240C
:103940003019305D3193DEF6CF010895462F477070
:10395000405D4193B3E00FD0C9F7F6CF462F4F70CB
:10396000405D4A3318F0495D31FD4052419302D029
:10397000A9F7EACFB4E0A6959795879577956795CF
:10398000BA95C9F700976105710508959B01AC01CF
:103990000A2E06945795479537952795BA95C9F7F6
:1039A000620F731F841F951FA01D08952F923F92D1
:1039B0004F925F926F927F928F929F92AF92BF923F
:1039C000CF92DF92EF92FF920F931F93CF93DF93EB
:1039D000CDB7DEB7CA1BDB0B0FB6F894DEBF0FBE48
:1039E000CDBF09942A88398848885F846E847D8495
:1039F0008C849B84AA84B984C884DF80EE80FD8097
:103A00000C811B81AA81B981CE0FD11D0FB6F8940C
:0E3A1000DEBF0FBECDBFED010895F894FFCFCD
:103A1E000000E90420000705070000000000181C44
:103A2E001E1F1E1C180003070F1F0F070300040E96
:103A3E001F1F000000000000001F1F0E04002020AA
:103A4E002020436F6E6669726D6174696F6E0044FB
:103A5E006F20596F752077616E7420746F207361BB
:103A6E00766500746865206368616E676573203FD4
:103A7E000025632020202020204E202020205920A9
:103A8E00202020202020005374617274206F722039
:103A9E00436F6E666967757265203F004175746F7E
:103AAE0020537461727420696E2025303264207345
:103ABE006563005374617274202020202020436FB0
:103ACE006E666967757265002020536574205379A0
:103ADE007374656D2054696D6500202054696D65A1
:103AEE003A202532643A253032642025634D002079
:103AFE002020202020202D202020202B20202020A0
:103B0E00204F4B00202020202020414448554E4974
:103B1E004B0020204C4947485420434F4E54524F9F
:103B2E004C4C4552004D6F62696C653A203031370E
:103B3E00313432323834323200202054696D653AD5
:103B4E00202532643A253032643A253032642025FD
:103B5E00634D002020202020456E642054696D6541
:103B6E003A20256400437572722E2056616C75657D
:103B7E003A202532643A2530326425634D002563A0
:103B8E002020202020202020202020202020202027
:103B9E0020202563004E657720202056616C7565C8
:103BAE003A202532643A2530326425634D00256370
:103BBE002020202020202D202020202B20202020DF
:103BCE0020202563002020205374617274205469D4
:103BDE006D653A2025640020202020202050536F50
:103BEE006C766572730020204C6967687420436F91
:103BFE006E74726F6C6C6572002020202056657298
:103C0E0073696F6E3A20312E300020207777772E31
:103C1E0070736F6C766572732E636F6D004008481B
:00000001FF
